{
  "_format": "hh-sol-artifact-1",
  "contractName": "BulkDonation",
  "sourceName": "contracts/BulkDonation.sol",
  "abi": [
    {
      "inputs": [
        {
          "internalType": "address",
          "name": "_usdcToken",
          "type": "address"
        }
      ],
      "stateMutability": "nonpayable",
      "type": "constructor"
    },
    {
      "inputs": [
        {
          "internalType": "address",
          "name": "owner",
          "type": "address"
        }
      ],
      "name": "OwnableInvalidOwner",
      "type": "error"
    },
    {
      "inputs": [
        {
          "internalType": "address",
          "name": "account",
          "type": "address"
        }
      ],
      "name": "OwnableUnauthorizedAccount",
      "type": "error"
    },
    {
      "inputs": [],
      "name": "ReentrancyGuardReentrantCall",
      "type": "error"
    },
    {
      "anonymous": false,
      "inputs": [
        {
          "indexed": true,
          "internalType": "address",
          "name": "ngoAddress",
          "type": "address"
        },
        {
          "indexed": true,
          "internalType": "bytes32",
          "name": "phoneHash",
          "type": "bytes32"
        },
        {
          "indexed": true,
          "internalType": "address",
          "name": "recipient",
          "type": "address"
        },
        {
          "indexed": false,
          "internalType": "uint256",
          "name": "amount",
          "type": "uint256"
        },
        {
          "indexed": false,
          "internalType": "bool",
          "name": "isToken",
          "type": "bool"
        }
      ],
      "name": "FundsClaimed",
      "type": "event"
    },
    {
      "anonymous": false,
      "inputs": [
        {
          "indexed": true,
          "internalType": "address",
          "name": "ngoAddress",
          "type": "address"
        },
        {
          "indexed": false,
          "internalType": "uint256",
          "name": "amount",
          "type": "uint256"
        },
        {
          "indexed": false,
          "internalType": "bool",
          "name": "isToken",
          "type": "bool"
        }
      ],
      "name": "FundsDeposited",
      "type": "event"
    },
    {
      "anonymous": false,
      "inputs": [
        {
          "indexed": true,
          "internalType": "address",
          "name": "ngoAddress",
          "type": "address"
        },
        {
          "indexed": false,
          "internalType": "string",
          "name": "name",
          "type": "string"
        }
      ],
      "name": "NGORegistered",
      "type": "event"
    },
    {
      "anonymous": false,
      "inputs": [
        {
          "indexed": true,
          "internalType": "address",
          "name": "previousOwner",
          "type": "address"
        },
        {
          "indexed": true,
          "internalType": "address",
          "name": "newOwner",
          "type": "address"
        }
      ],
      "name": "OwnershipTransferred",
      "type": "event"
    },
    {
      "anonymous": false,
      "inputs": [
        {
          "indexed": true,
          "internalType": "bytes32",
          "name": "phoneHash",
          "type": "bytes32"
        },
        {
          "indexed": true,
          "internalType": "address",
          "name": "wallet",
          "type": "address"
        }
      ],
      "name": "PhoneRegistered",
      "type": "event"
    },
    {
      "anonymous": false,
      "inputs": [
        {
          "indexed": true,
          "internalType": "address",
          "name": "ngoAddress",
          "type": "address"
        },
        {
          "indexed": true,
          "internalType": "bytes32",
          "name": "phoneHash",
          "type": "bytes32"
        },
        {
          "indexed": false,
          "internalType": "address",
          "name": "currentWallet",
          "type": "address"
        },
        {
          "indexed": false,
          "internalType": "address",
          "name": "newWallet",
          "type": "address"
        }
      ],
      "name": "ReassignmentRequested",
      "type": "event"
    },
    {
      "anonymous": false,
      "inputs": [
        {
          "indexed": true,
          "internalType": "address",
          "name": "ngoAddress",
          "type": "address"
        },
        {
          "indexed": true,
          "internalType": "bytes32",
          "name": "phoneHash",
          "type": "bytes32"
        },
        {
          "indexed": false,
          "internalType": "uint256",
          "name": "amount",
          "type": "uint256"
        }
      ],
      "name": "RecipientAdded",
      "type": "event"
    },
    {
      "anonymous": false,
      "inputs": [
        {
          "indexed": true,
          "internalType": "address",
          "name": "ngoAddress",
          "type": "address"
        },
        {
          "indexed": true,
          "internalType": "bytes32",
          "name": "phoneHash",
          "type": "bytes32"
        },
        {
          "indexed": false,
          "internalType": "address",
          "name": "oldWallet",
          "type": "address"
        },
        {
          "indexed": false,
          "internalType": "address",
          "name": "newWallet",
          "type": "address"
        }
      ],
      "name": "RecipientWalletUpdated",
      "type": "event"
    },
    {
      "inputs": [
        {
          "internalType": "string[]",
          "name": "_phoneNumbers",
          "type": "string[]"
        },
        {
          "internalType": "address[]",
          "name": "_walletAddresses",
          "type": "address[]"
        },
        {
          "internalType": "uint256[]",
          "name": "_amounts",
          "type": "uint256[]"
        },
        {
          "internalType": "bool",
          "name": "_isToken",
          "type": "bool"
        }
      ],
      "name": "addRecipients",
      "outputs": [],
      "stateMutability": "nonpayable",
      "type": "function"
    },
    {
      "inputs": [
        {
          "internalType": "string",
          "name": "_phoneNumber",
          "type": "string"
        },
        {
          "internalType": "address",
          "name": "_ngoAddress",
          "type": "address"
        },
        {
          "internalType": "bool",
          "name": "_isToken",
          "type": "bool"
        }
      ],
      "name": "claimDirectly",
      "outputs": [],
      "stateMutability": "nonpayable",
      "type": "function"
    },
    {
      "inputs": [
        {
          "internalType": "string",
          "name": "_phoneNumber",
          "type": "string"
        },
        {
          "internalType": "address",
          "name": "_ngoAddress",
          "type": "address"
        },
        {
          "internalType": "bool",
          "name": "_isToken",
          "type": "bool"
        }
      ],
      "name": "claimFunds",
      "outputs": [],
      "stateMutability": "nonpayable",
      "type": "function"
    },
    {
      "inputs": [],
      "name": "depositAvax",
      "outputs": [],
      "stateMutability": "payable",
      "type": "function"
    },
    {
      "inputs": [
        {
          "internalType": "uint256",
          "name": "_amount",
          "type": "uint256"
        }
      ],
      "name": "depositToken",
      "outputs": [],
      "stateMutability": "nonpayable",
      "type": "function"
    },
    {
      "inputs": [],
      "name": "getAllNGOs",
      "outputs": [
        {
          "internalType": "address[]",
          "name": "",
          "type": "address[]"
        }
      ],
      "stateMutability": "view",
      "type": "function"
    },
    {
      "inputs": [
        {
          "internalType": "string",
          "name": "_phoneNumber",
          "type": "string"
        },
        {
          "internalType": "address",
          "name": "_ngoAddress",
          "type": "address"
        }
      ],
      "name": "getClaimableAmount",
      "outputs": [
        {
          "internalType": "uint256",
          "name": "amount",
          "type": "uint256"
        },
        {
          "internalType": "bool",
          "name": "claimed",
          "type": "bool"
        }
      ],
      "stateMutability": "view",
      "type": "function"
    },
    {
      "inputs": [
        {
          "internalType": "address",
          "name": "_ngoAddress",
          "type": "address"
        }
      ],
      "name": "getNGORecipients",
      "outputs": [
        {
          "internalType": "bytes32[]",
          "name": "",
          "type": "bytes32[]"
        }
      ],
      "stateMutability": "view",
      "type": "function"
    },
    {
      "inputs": [
        {
          "internalType": "uint256",
          "name": "",
          "type": "uint256"
        }
      ],
      "name": "ngoAddresses",
      "outputs": [
        {
          "internalType": "address",
          "name": "",
          "type": "address"
        }
      ],
      "stateMutability": "view",
      "type": "function"
    },
    {
      "inputs": [
        {
          "internalType": "address",
          "name": "",
          "type": "address"
        }
      ],
      "name": "ngoAvaxBalance",
      "outputs": [
        {
          "internalType": "uint256",
          "name": "",
          "type": "uint256"
        }
      ],
      "stateMutability": "view",
      "type": "function"
    },
    {
      "inputs": [
        {
          "internalType": "address",
          "name": "",
          "type": "address"
        },
        {
          "internalType": "uint256",
          "name": "",
          "type": "uint256"
        }
      ],
      "name": "ngoRecipients",
      "outputs": [
        {
          "internalType": "bytes32",
          "name": "",
          "type": "bytes32"
        }
      ],
      "stateMutability": "view",
      "type": "function"
    },
    {
      "inputs": [
        {
          "internalType": "address",
          "name": "",
          "type": "address"
        }
      ],
      "name": "ngoTokenBalance",
      "outputs": [
        {
          "internalType": "uint256",
          "name": "",
          "type": "uint256"
        }
      ],
      "stateMutability": "view",
      "type": "function"
    },
    {
      "inputs": [
        {
          "internalType": "address",
          "name": "",
          "type": "address"
        }
      ],
      "name": "ngos",
      "outputs": [
        {
          "internalType": "string",
          "name": "name",
          "type": "string"
        },
        {
          "internalType": "string",
          "name": "description",
          "type": "string"
        },
        {
          "internalType": "address",
          "name": "wallet",
          "type": "address"
        },
        {
          "internalType": "bool",
          "name": "isRegistered",
          "type": "bool"
        }
      ],
      "stateMutability": "view",
      "type": "function"
    },
    {
      "inputs": [],
      "name": "owner",
      "outputs": [
        {
          "internalType": "address",
          "name": "",
          "type": "address"
        }
      ],
      "stateMutability": "view",
      "type": "function"
    },
    {
      "inputs": [
        {
          "internalType": "bytes32",
          "name": "",
          "type": "bytes32"
        }
      ],
      "name": "phoneToWallet",
      "outputs": [
        {
          "internalType": "address",
          "name": "",
          "type": "address"
        }
      ],
      "stateMutability": "view",
      "type": "function"
    },
    {
      "inputs": [
        {
          "internalType": "address",
          "name": "",
          "type": "address"
        },
        {
          "internalType": "bytes32",
          "name": "",
          "type": "bytes32"
        }
      ],
      "name": "recipients",
      "outputs": [
        {
          "internalType": "bytes32",
          "name": "phoneHash",
          "type": "bytes32"
        },
        {
          "internalType": "address",
          "name": "wallet",
          "type": "address"
        },
        {
          "internalType": "uint256",
          "name": "amount",
          "type": "uint256"
        },
        {
          "internalType": "bool",
          "name": "claimed",
          "type": "bool"
        }
      ],
      "stateMutability": "view",
      "type": "function"
    },
    {
      "inputs": [
        {
          "internalType": "string",
          "name": "_name",
          "type": "string"
        },
        {
          "internalType": "string",
          "name": "_description",
          "type": "string"
        }
      ],
      "name": "registerNGO",
      "outputs": [],
      "stateMutability": "nonpayable",
      "type": "function"
    },
    {
      "inputs": [
        {
          "internalType": "string",
          "name": "_phoneNumber",
          "type": "string"
        },
        {
          "internalType": "bool",
          "name": "_force",
          "type": "bool"
        }
      ],
      "name": "registerPhone",
      "outputs": [],
      "stateMutability": "nonpayable",
      "type": "function"
    },
    {
      "inputs": [
        {
          "internalType": "string",
          "name": "_phoneNumber",
          "type": "string"
        }
      ],
      "name": "registerPhone",
      "outputs": [],
      "stateMutability": "nonpayable",
      "type": "function"
    },
    {
      "inputs": [],
      "name": "renounceOwnership",
      "outputs": [],
      "stateMutability": "nonpayable",
      "type": "function"
    },
    {
      "inputs": [
        {
          "internalType": "string",
          "name": "_phoneNumber",
          "type": "string"
        },
        {
          "internalType": "address",
          "name": "_ngoAddress",
          "type": "address"
        }
      ],
      "name": "requestWalletReassignment",
      "outputs": [
        {
          "internalType": "bool",
          "name": "success",
          "type": "bool"
        }
      ],
      "stateMutability": "nonpayable",
      "type": "function"
    },
    {
      "inputs": [
        {
          "internalType": "address",
          "name": "_newToken",
          "type": "address"
        }
      ],
      "name": "setTokenAddress",
      "outputs": [],
      "stateMutability": "nonpayable",
      "type": "function"
    },
    {
      "inputs": [
        {
          "internalType": "address",
          "name": "newOwner",
          "type": "address"
        }
      ],
      "name": "transferOwnership",
      "outputs": [],
      "stateMutability": "nonpayable",
      "type": "function"
    },
    {
      "inputs": [
        {
          "internalType": "string",
          "name": "_phoneNumber",
          "type": "string"
        },
        {
          "internalType": "address",
          "name": "_newWalletAddress",
          "type": "address"
        }
      ],
      "name": "updateRecipientWallet",
      "outputs": [
        {
          "internalType": "bool",
          "name": "success",
          "type": "bool"
        }
      ],
      "stateMutability": "nonpayable",
      "type": "function"
    },
    {
      "inputs": [],
      "name": "usdcToken",
      "outputs": [
        {
          "internalType": "address",
          "name": "",
          "type": "address"
        }
      ],
      "stateMutability": "view",
      "type": "function"
    }
  ],
  "bytecode": "0x60806040523480156200001157600080fd5b506040516200495a3803806200495a83398181016040528101906200003791906200023c565b33600073ffffffffffffffffffffffffffffffffffffffff168173ffffffffffffffffffffffffffffffffffffffff1603620000ad5760006040517f1e4fbdf7000000000000000000000000000000000000000000000000000000008152600401620000a491906200027f565b60405180910390fd5b620000be816200010e60201b60201c565b506001808190555080600260006101000a81548173ffffffffffffffffffffffffffffffffffffffff021916908373ffffffffffffffffffffffffffffffffffffffff160217905550506200029c565b60008060009054906101000a900473ffffffffffffffffffffffffffffffffffffffff169050816000806101000a81548173ffffffffffffffffffffffffffffffffffffffff021916908373ffffffffffffffffffffffffffffffffffffffff1602179055508173ffffffffffffffffffffffffffffffffffffffff168173ffffffffffffffffffffffffffffffffffffffff167f8be0079c531659141344cd1fd0a4f28419497f9722a3daafe3b4186f6b6457e060405160405180910390a35050565b600080fd5b600073ffffffffffffffffffffffffffffffffffffffff82169050919050565b60006200020482620001d7565b9050919050565b6200021681620001f7565b81146200022257600080fd5b50565b60008151905062000236816200020b565b92915050565b600060208284031215620002555762000254620001d2565b5b6000620002658482850162000225565b91505092915050565b6200027981620001f7565b82525050565b60006020820190506200029660008301846200026e565b92915050565b6146ae80620002ac6000396000f3fe6080604052600436106101665760003560e01c80636215be77116100d15780638e2102c61161008a578063b60ced0c11610064578063b60ced0c14610541578063d5e5758e1461057e578063e6f7d11e146105bb578063f2fde38b146105fb57610166565b80638e2102c614610489578063974efc0c146104c7578063a63e5f991461050457610166565b80636215be771461038d578063715018a6146103b65780637cdac1ff146103cd57806387b5a2dd146103f657806387bc26f5146104215780638da5cb5b1461045e57610166565b806325f7501c1161012357806325f7501c1461025b57806326a4e8d214610284578063273f0e5d146102ad57806336919ecc146102ea57806337818d39146103275780634191f4861461036457610166565b806308c008b11461016b5780630db51347146101945780630ecd421a146101d457806311eac855146101fd57806318566e40146102285780632405686714610251575b600080fd5b34801561017757600080fd5b50610192600480360381019061018d9190612eba565b610624565b005b3480156101a057600080fd5b506101bb60048036038101906101b69190612faa565b610908565b6040516101cb9493929190613030565b60405180910390f35b3480156101e057600080fd5b506101fb60048036038101906101f69190613075565b610972565b005b34801561020957600080fd5b50610212610d6b565b60405161021f91906130e4565b60405180910390f35b34801561023457600080fd5b5061024f600480360381019061024a91906130ff565b610d91565b005b610259610f64565b005b34801561026757600080fd5b50610282600480360381019061027d9190613075565b6110df565b005b34801561029057600080fd5b506102ab60048036038101906102a69190613148565b611437565b005b3480156102b957600080fd5b506102d460048036038101906102cf91906131a1565b611483565b6040516102e191906131e1565b60405180910390f35b3480156102f657600080fd5b50610311600480360381019061030c9190613148565b6114b4565b60405161031e91906131fc565b60405180910390f35b34801561033357600080fd5b5061034e60048036038101906103499190613148565b6114cc565b60405161035b91906132d5565b60405180910390f35b34801561037057600080fd5b5061038b600480360381019061038691906132f7565b611563565b005b34801561039957600080fd5b506103b460048036038101906103af919061336f565b6117b7565b005b3480156103c257600080fd5b506103cb611a14565b005b3480156103d957600080fd5b506103f460048036038101906103ef9190613608565b611a28565b005b34801561040257600080fd5b5061040b612065565b6040516104189190613781565b60405180910390f35b34801561042d57600080fd5b50610448600480360381019061044391906137a3565b6120f3565b60405161045591906137ff565b60405180910390f35b34801561046a57600080fd5b50610473612558565b60405161048091906130e4565b60405180910390f35b34801561049557600080fd5b506104b060048036038101906104ab91906137a3565b612581565b6040516104be92919061381a565b60405180910390f35b3480156104d357600080fd5b506104ee60048036038101906104e991906137a3565b612627565b6040516104fb91906137ff565b60405180910390f35b34801561051057600080fd5b5061052b6004803603810190610526919061336f565b612909565b60405161053891906130e4565b60405180910390f35b34801561054d57600080fd5b5061056860048036038101906105639190613843565b612948565b60405161057591906130e4565b60405180910390f35b34801561058a57600080fd5b506105a560048036038101906105a09190613148565b61297b565b6040516105b291906131fc565b60405180910390f35b3480156105c757600080fd5b506105e260048036038101906105dd9190613148565b612993565b6040516105f294939291906138ef565b60405180910390f35b34801561060757600080fd5b50610622600480360381019061061d9190613148565b612b00565b005b600082604051602001610637919061397e565b604051602081830303815290604052805190602001209050600073ffffffffffffffffffffffffffffffffffffffff166009600083815260200190815260200160002060009054906101000a900473ffffffffffffffffffffffffffffffffffffffff1673ffffffffffffffffffffffffffffffffffffffff161415801561071e57503373ffffffffffffffffffffffffffffffffffffffff166009600083815260200190815260200160002060009054906101000a900473ffffffffffffffffffffffffffffffffffffffff1673ffffffffffffffffffffffffffffffffffffffff1614155b156108045781156107c457336009600083815260200190815260200160002060006101000a81548173ffffffffffffffffffffffffffffffffffffffff021916908373ffffffffffffffffffffffffffffffffffffffff1602179055503373ffffffffffffffffffffffffffffffffffffffff16817f786c008769efb3c8188a53953d6cbca8dfbc4b4de8855d1c103b5ec78318620060405160405180910390a36107ff565b6040517f08c379a00000000000000000000000000000000000000000000000000000000081526004016107f690613a07565b60405180910390fd5b610903565b600073ffffffffffffffffffffffffffffffffffffffff166009600083815260200190815260200160002060009054906101000a900473ffffffffffffffffffffffffffffffffffffffff1673ffffffffffffffffffffffffffffffffffffffff160361090257336009600083815260200190815260200160002060006101000a81548173ffffffffffffffffffffffffffffffffffffffff021916908373ffffffffffffffffffffffffffffffffffffffff1602179055503373ffffffffffffffffffffffffffffffffffffffff16817f786c008769efb3c8188a53953d6cbca8dfbc4b4de8855d1c103b5ec78318620060405160405180910390a35b5b505050565b6007602052816000526040600020602052806000526040600020600091509150508060000154908060010160009054906101000a900473ffffffffffffffffffffffffffffffffffffffff16908060020154908060030160009054906101000a900460ff16905084565b61097a612b86565b60008360405160200161098d919061397e565b6040516020818303038152906040528051906020012090503373ffffffffffffffffffffffffffffffffffffffff166009600083815260200190815260200160002060009054906101000a900473ffffffffffffffffffffffffffffffffffffffff1673ffffffffffffffffffffffffffffffffffffffff1614610a46576040517f08c379a0000000000000000000000000000000000000000000000000000000008152600401610a3d90613a99565b60405180910390fd5b6000600760008573ffffffffffffffffffffffffffffffffffffffff1673ffffffffffffffffffffffffffffffffffffffff168152602001908152602001600020600083815260200190815260200160002090506000816002015411610ae1576040517f08c379a0000000000000000000000000000000000000000000000000000000008152600401610ad890613b05565b60405180910390fd5b8060030160009054906101000a900460ff1615610b33576040517f08c379a0000000000000000000000000000000000000000000000000000000008152600401610b2a90613b71565b60405180910390fd5b60018160030160006101000a81548160ff0219169083151502179055508215610c3e57600260009054906101000a900473ffffffffffffffffffffffffffffffffffffffff1673ffffffffffffffffffffffffffffffffffffffff1663a9059cbb3383600201546040518363ffffffff1660e01b8152600401610bb7929190613b91565b6020604051808303816000875af1158015610bd6573d6000803e3d6000fd5b505050506040513d601f19601f82011682018060405250810190610bfa9190613bcf565b610c39576040517f08c379a0000000000000000000000000000000000000000000000000000000008152600401610c3090613c48565b60405180910390fd5b610cf0565b60003373ffffffffffffffffffffffffffffffffffffffff168260020154604051610c6890613c99565b60006040518083038185875af1925050503d8060008114610ca5576040519150601f19603f3d011682016040523d82523d6000602084013e610caa565b606091505b5050905080610cee576040517f08c379a0000000000000000000000000000000000000000000000000000000008152600401610ce590613cfa565b60405180910390fd5b505b3373ffffffffffffffffffffffffffffffffffffffff16828573ffffffffffffffffffffffffffffffffffffffff167fa7c2addd0c6412e4b3294ccaeb24474493a6735c02e6dc5f23ae16496689eef1846002015487604051610d5492919061381a565b60405180910390a45050610d66612bcc565b505050565b600260009054906101000a900473ffffffffffffffffffffffffffffffffffffffff1681565b600081604051602001610da4919061397e565b604051602081830303815290604052805190602001209050600073ffffffffffffffffffffffffffffffffffffffff166009600083815260200190815260200160002060009054906101000a900473ffffffffffffffffffffffffffffffffffffffff1673ffffffffffffffffffffffffffffffffffffffff1614610ec9573373ffffffffffffffffffffffffffffffffffffffff166009600083815260200190815260200160002060009054906101000a900473ffffffffffffffffffffffffffffffffffffffff1673ffffffffffffffffffffffffffffffffffffffff1614610ec4576040517f08c379a0000000000000000000000000000000000000000000000000000000008152600401610ebb90613a07565b60405180910390fd5b610f60565b336009600083815260200190815260200160002060006101000a81548173ffffffffffffffffffffffffffffffffffffffff021916908373ffffffffffffffffffffffffffffffffffffffff1602179055503373ffffffffffffffffffffffffffffffffffffffff16817f786c008769efb3c8188a53953d6cbca8dfbc4b4de8855d1c103b5ec78318620060405160405180910390a35b5050565b600360003373ffffffffffffffffffffffffffffffffffffffff1673ffffffffffffffffffffffffffffffffffffffff16815260200190815260200160002060020160149054906101000a900460ff16610ff3576040517f08c379a0000000000000000000000000000000000000000000000000000000008152600401610fea90613d66565b60405180910390fd5b60003411611036576040517f08c379a000000000000000000000000000000000000000000000000000000000815260040161102d90613dd2565b60405180910390fd5b34600560003373ffffffffffffffffffffffffffffffffffffffff1673ffffffffffffffffffffffffffffffffffffffff16815260200190815260200160002060008282546110859190613e21565b925050819055503373ffffffffffffffffffffffffffffffffffffffff167f2b69caa7556d3aaa06b614651f299299aec484d693c772b7c871eb524cd3acf23460006040516110d592919061381a565b60405180910390a2565b6110e7612b86565b6000836040516020016110fa919061397e565b6040516020818303038152906040528051906020012090506000600760008573ffffffffffffffffffffffffffffffffffffffff1673ffffffffffffffffffffffffffffffffffffffff1681526020019081526020016000206000838152602001908152602001600020905060008160020154116111ad576040517f08c379a00000000000000000000000000000000000000000000000000000000081526004016111a490613b05565b60405180910390fd5b8060030160009054906101000a900460ff16156111ff576040517f08c379a00000000000000000000000000000000000000000000000000000000081526004016111f690613b71565b60405180910390fd5b60018160030160006101000a81548160ff021916908315150217905550821561130a57600260009054906101000a900473ffffffffffffffffffffffffffffffffffffffff1673ffffffffffffffffffffffffffffffffffffffff1663a9059cbb3383600201546040518363ffffffff1660e01b8152600401611283929190613b91565b6020604051808303816000875af11580156112a2573d6000803e3d6000fd5b505050506040513d601f19601f820116820180604052508101906112c69190613bcf565b611305576040517f08c379a00000000000000000000000000000000000000000000000000000000081526004016112fc90613c48565b60405180910390fd5b6113bc565b60003373ffffffffffffffffffffffffffffffffffffffff16826002015460405161133490613c99565b60006040518083038185875af1925050503d8060008114611371576040519150601f19603f3d011682016040523d82523d6000602084013e611376565b606091505b50509050806113ba576040517f08c379a00000000000000000000000000000000000000000000000000000000081526004016113b190613cfa565b60405180910390fd5b505b3373ffffffffffffffffffffffffffffffffffffffff16828573ffffffffffffffffffffffffffffffffffffffff167fa7c2addd0c6412e4b3294ccaeb24474493a6735c02e6dc5f23ae16496689eef184600201548760405161142092919061381a565b60405180910390a45050611432612bcc565b505050565b61143f612bd5565b80600260006101000a81548173ffffffffffffffffffffffffffffffffffffffff021916908373ffffffffffffffffffffffffffffffffffffffff16021790555050565b6008602052816000526040600020818154811061149f57600080fd5b90600052602060002001600091509150505481565b60066020528060005260406000206000915090505481565b6060600860008373ffffffffffffffffffffffffffffffffffffffff1673ffffffffffffffffffffffffffffffffffffffff16815260200190815260200160002080548060200260200160405190810160405280929190818152602001828054801561155757602002820191906000526020600020905b815481526020019060010190808311611543575b50505050509050919050565b600360003373ffffffffffffffffffffffffffffffffffffffff1673ffffffffffffffffffffffffffffffffffffffff16815260200190815260200160002060020160149054906101000a900460ff16156115f3576040517f08c379a00000000000000000000000000000000000000000000000000000000081526004016115ea90613ea1565b60405180910390fd5b60405180608001604052808381526020018281526020013373ffffffffffffffffffffffffffffffffffffffff16815260200160011515815250600360003373ffffffffffffffffffffffffffffffffffffffff1673ffffffffffffffffffffffffffffffffffffffff168152602001908152602001600020600082015181600001908161168191906140cd565b50602082015181600101908161169791906140cd565b5060408201518160020160006101000a81548173ffffffffffffffffffffffffffffffffffffffff021916908373ffffffffffffffffffffffffffffffffffffffff16021790555060608201518160020160146101000a81548160ff0219169083151502179055509050506004339080600181540180825580915050600190039060005260206000200160009091909190916101000a81548173ffffffffffffffffffffffffffffffffffffffff021916908373ffffffffffffffffffffffffffffffffffffffff1602179055503373ffffffffffffffffffffffffffffffffffffffff167f0386741c0345c35e0430ddfe5fee0c0afbfad9de0f6c1f1ece8021927c2f7320836040516117ab919061419f565b60405180910390a25050565b600360003373ffffffffffffffffffffffffffffffffffffffff1673ffffffffffffffffffffffffffffffffffffffff16815260200190815260200160002060020160149054906101000a900460ff16611846576040517f08c379a000000000000000000000000000000000000000000000000000000000815260040161183d90613d66565b60405180910390fd5b60008111611889576040517f08c379a000000000000000000000000000000000000000000000000000000000815260040161188090613dd2565b60405180910390fd5b600260009054906101000a900473ffffffffffffffffffffffffffffffffffffffff1673ffffffffffffffffffffffffffffffffffffffff166323b872dd3330846040518463ffffffff1660e01b81526004016118e8939291906141c1565b6020604051808303816000875af1158015611907573d6000803e3d6000fd5b505050506040513d601f19601f8201168201806040525081019061192b9190613bcf565b61196a576040517f08c379a000000000000000000000000000000000000000000000000000000000815260040161196190613c48565b60405180910390fd5b80600660003373ffffffffffffffffffffffffffffffffffffffff1673ffffffffffffffffffffffffffffffffffffffff16815260200190815260200160002060008282546119b99190613e21565b925050819055503373ffffffffffffffffffffffffffffffffffffffff167f2b69caa7556d3aaa06b614651f299299aec484d693c772b7c871eb524cd3acf2826001604051611a0992919061381a565b60405180910390a250565b611a1c612bd5565b611a266000612c5c565b565b600360003373ffffffffffffffffffffffffffffffffffffffff1673ffffffffffffffffffffffffffffffffffffffff16815260200190815260200160002060020160149054906101000a900460ff16611ab7576040517f08c379a0000000000000000000000000000000000000000000000000000000008152600401611aae90613d66565b60405180910390fd5b82518451148015611ac9575081518351145b611b08576040517f08c379a0000000000000000000000000000000000000000000000000000000008152600401611aff90614244565b60405180910390fd5b6000805b8351811015611b5057838181518110611b2857611b27614264565b5b602002602001015182611b3b9190613e21565b91508080611b4890614293565b915050611b0c565b508115611bde5780600660003373ffffffffffffffffffffffffffffffffffffffff1673ffffffffffffffffffffffffffffffffffffffff168152602001908152602001600020541015611bd9576040517f08c379a0000000000000000000000000000000000000000000000000000000008152600401611bd090614327565b60405180910390fd5b611c61565b80600560003373ffffffffffffffffffffffffffffffffffffffff1673ffffffffffffffffffffffffffffffffffffffff168152602001908152602001600020541015611c60576040517f08c379a0000000000000000000000000000000000000000000000000000000008152600401611c5790614393565b60405180910390fd5b5b60005b8551811015611fa5576000868281518110611c8257611c81614264565b5b6020026020010151604051602001611c9a919061397e565b6040516020818303038152906040528051906020012090506040518060800160405280828152602001878481518110611cd657611cd5614264565b5b602002602001015173ffffffffffffffffffffffffffffffffffffffff168152602001868481518110611d0c57611d0b614264565b5b6020026020010151815260200160001515815250600760003373ffffffffffffffffffffffffffffffffffffffff1673ffffffffffffffffffffffffffffffffffffffff16815260200190815260200160002060008381526020019081526020016000206000820151816000015560208201518160010160006101000a81548173ffffffffffffffffffffffffffffffffffffffff021916908373ffffffffffffffffffffffffffffffffffffffff1602179055506040820151816002015560608201518160030160006101000a81548160ff0219169083151502179055509050506000805b600860003373ffffffffffffffffffffffffffffffffffffffff1673ffffffffffffffffffffffffffffffffffffffff16815260200190815260200160002080549050811015611eba5782600860003373ffffffffffffffffffffffffffffffffffffffff1673ffffffffffffffffffffffffffffffffffffffff1681526020019081526020016000208281548110611e8e57611e8d614264565b5b906000526020600020015403611ea75760019150611eba565b8080611eb290614293565b915050611df2565b5080611f2757600860003373ffffffffffffffffffffffffffffffffffffffff1673ffffffffffffffffffffffffffffffffffffffff1681526020019081526020016000208290806001815401808255809150506001900390600052602060002001600090919091909150555b813373ffffffffffffffffffffffffffffffffffffffff167f535db316fe44c53d41476aee07714cf28af70c36879987fc009da54a06e9f71b888681518110611f7357611f72614264565b5b6020026020010151604051611f8891906131fc565b60405180910390a350508080611f9d90614293565b915050611c64565b5081156120075780600660003373ffffffffffffffffffffffffffffffffffffffff1673ffffffffffffffffffffffffffffffffffffffff1681526020019081526020016000206000828254611ffb91906143b3565b9250508190555061205e565b80600560003373ffffffffffffffffffffffffffffffffffffffff1673ffffffffffffffffffffffffffffffffffffffff168152602001908152602001600020600082825461205691906143b3565b925050819055505b5050505050565b606060048054806020026020016040519081016040528092919081815260200182805480156120e957602002820191906000526020600020905b8160009054906101000a900473ffffffffffffffffffffffffffffffffffffffff1673ffffffffffffffffffffffffffffffffffffffff168152602001906001019080831161209f575b5050505050905090565b60008083604051602001612107919061397e565b604051602081830303815290604052805190602001209050600073ffffffffffffffffffffffffffffffffffffffff166009600083815260200190815260200160002060009054906101000a900473ffffffffffffffffffffffffffffffffffffffff1673ffffffffffffffffffffffffffffffffffffffff160361221d57336009600083815260200190815260200160002060006101000a81548173ffffffffffffffffffffffffffffffffffffffff021916908373ffffffffffffffffffffffffffffffffffffffff1602179055503373ffffffffffffffffffffffffffffffffffffffff16817f786c008769efb3c8188a53953d6cbca8dfbc4b4de8855d1c103b5ec78318620060405160405180910390a35b3373ffffffffffffffffffffffffffffffffffffffff166009600083815260200190815260200160002060009054906101000a900473ffffffffffffffffffffffffffffffffffffffff1673ffffffffffffffffffffffffffffffffffffffff16146122be576040517f08c379a00000000000000000000000000000000000000000000000000000000081526004016122b590614459565b60405180910390fd5b6000600760008573ffffffffffffffffffffffffffffffffffffffff1673ffffffffffffffffffffffffffffffffffffffff168152602001908152602001600020600083815260200190815260200160002090506000816002015411612359576040517f08c379a0000000000000000000000000000000000000000000000000000000008152600401612350906144c5565b60405180910390fd5b8060030160009054906101000a900460ff16156123ab576040517f08c379a00000000000000000000000000000000000000000000000000000000081526004016123a290613b71565b60405180910390fd5b3373ffffffffffffffffffffffffffffffffffffffff168160010160009054906101000a900473ffffffffffffffffffffffffffffffffffffffff1673ffffffffffffffffffffffffffffffffffffffff160361243d576040517f08c379a000000000000000000000000000000000000000000000000000000000815260040161243490614557565b60405180910390fd5b60008160010160009054906101000a900473ffffffffffffffffffffffffffffffffffffffff169050338260010160006101000a81548173ffffffffffffffffffffffffffffffffffffffff021916908373ffffffffffffffffffffffffffffffffffffffff160217905550828573ffffffffffffffffffffffffffffffffffffffff167f9935fb8cfeb9a132f5842586bfcb3803bd83c874f5fb288c29ae9e009156d0da83336040516124f2929190614577565b60405180910390a3828573ffffffffffffffffffffffffffffffffffffffff167f13efbd081e53e78fefee630c31caa9a76bc8c2b00bfc9413f096e6c4c792f3468333604051612543929190614577565b60405180910390a36001935050505092915050565b60008060009054906101000a900473ffffffffffffffffffffffffffffffffffffffff16905090565b600080600084604051602001612597919061397e565b6040516020818303038152906040528051906020012090506000600760008673ffffffffffffffffffffffffffffffffffffffff1673ffffffffffffffffffffffffffffffffffffffff1681526020019081526020016000206000838152602001908152602001600020905080600201548160030160009054906101000a900460ff169350935050509250929050565b6000600360003373ffffffffffffffffffffffffffffffffffffffff1673ffffffffffffffffffffffffffffffffffffffff16815260200190815260200160002060020160149054906101000a900460ff166126b8576040517f08c379a00000000000000000000000000000000000000000000000000000000081526004016126af90613d66565b60405180910390fd5b600073ffffffffffffffffffffffffffffffffffffffff168273ffffffffffffffffffffffffffffffffffffffff1603612727576040517f08c379a000000000000000000000000000000000000000000000000000000000815260040161271e906145ec565b60405180910390fd5b60008360405160200161273a919061397e565b6040516020818303038152906040528051906020012090506000600760003373ffffffffffffffffffffffffffffffffffffffff1673ffffffffffffffffffffffffffffffffffffffff1681526020019081526020016000206000838152602001908152602001600020905060008160020154116127ed576040517f08c379a00000000000000000000000000000000000000000000000000000000081526004016127e490614658565b60405180910390fd5b8060030160009054906101000a900460ff161561283f576040517f08c379a000000000000000000000000000000000000000000000000000000000815260040161283690613b71565b60405180910390fd5b60008160010160009054906101000a900473ffffffffffffffffffffffffffffffffffffffff169050848260010160006101000a81548173ffffffffffffffffffffffffffffffffffffffff021916908373ffffffffffffffffffffffffffffffffffffffff160217905550823373ffffffffffffffffffffffffffffffffffffffff167f13efbd081e53e78fefee630c31caa9a76bc8c2b00bfc9413f096e6c4c792f34683886040516128f4929190614577565b60405180910390a36001935050505092915050565b6004818154811061291957600080fd5b906000526020600020016000915054906101000a900473ffffffffffffffffffffffffffffffffffffffff1681565b60096020528060005260406000206000915054906101000a900473ffffffffffffffffffffffffffffffffffffffff1681565b60056020528060005260406000206000915090505481565b60036020528060005260406000206000915090508060000180546129b690613ef0565b80601f01602080910402602001604051908101604052809291908181526020018280546129e290613ef0565b8015612a2f5780601f10612a0457610100808354040283529160200191612a2f565b820191906000526020600020905b815481529060010190602001808311612a1257829003601f168201915b505050505090806001018054612a4490613ef0565b80601f0160208091040260200160405190810160405280929190818152602001828054612a7090613ef0565b8015612abd5780601f10612a9257610100808354040283529160200191612abd565b820191906000526020600020905b815481529060010190602001808311612aa057829003601f168201915b5050505050908060020160009054906101000a900473ffffffffffffffffffffffffffffffffffffffff16908060020160149054906101000a900460ff16905084565b612b08612bd5565b600073ffffffffffffffffffffffffffffffffffffffff168173ffffffffffffffffffffffffffffffffffffffff1603612b7a5760006040517f1e4fbdf7000000000000000000000000000000000000000000000000000000008152600401612b7191906130e4565b60405180910390fd5b612b8381612c5c565b50565b600260015403612bc2576040517f3ee5aeb500000000000000000000000000000000000000000000000000000000815260040160405180910390fd5b6002600181905550565b60018081905550565b612bdd612d20565b73ffffffffffffffffffffffffffffffffffffffff16612bfb612558565b73ffffffffffffffffffffffffffffffffffffffff1614612c5a57612c1e612d20565b6040517f118cdaa7000000000000000000000000000000000000000000000000000000008152600401612c5191906130e4565b60405180910390fd5b565b60008060009054906101000a900473ffffffffffffffffffffffffffffffffffffffff169050816000806101000a81548173ffffffffffffffffffffffffffffffffffffffff021916908373ffffffffffffffffffffffffffffffffffffffff1602179055508173ffffffffffffffffffffffffffffffffffffffff168173ffffffffffffffffffffffffffffffffffffffff167f8be0079c531659141344cd1fd0a4f28419497f9722a3daafe3b4186f6b6457e060405160405180910390a35050565b600033905090565b6000604051905090565b600080fd5b600080fd5b600080fd5b600080fd5b6000601f19601f8301169050919050565b7f4e487b7100000000000000000000000000000000000000000000000000000000600052604160045260246000fd5b612d8f82612d46565b810181811067ffffffffffffffff82111715612dae57612dad612d57565b5b80604052505050565b6000612dc1612d28565b9050612dcd8282612d86565b919050565b600067ffffffffffffffff821115612ded57612dec612d57565b5b612df682612d46565b9050602081019050919050565b82818337600083830152505050565b6000612e25612e2084612dd2565b612db7565b905082815260208101848484011115612e4157612e40612d41565b5b612e4c848285612e03565b509392505050565b600082601f830112612e6957612e68612d3c565b5b8135612e79848260208601612e12565b91505092915050565b60008115159050919050565b612e9781612e82565b8114612ea257600080fd5b50565b600081359050612eb481612e8e565b92915050565b60008060408385031215612ed157612ed0612d32565b5b600083013567ffffffffffffffff811115612eef57612eee612d37565b5b612efb85828601612e54565b9250506020612f0c85828601612ea5565b9150509250929050565b600073ffffffffffffffffffffffffffffffffffffffff82169050919050565b6000612f4182612f16565b9050919050565b612f5181612f36565b8114612f5c57600080fd5b50565b600081359050612f6e81612f48565b92915050565b6000819050919050565b612f8781612f74565b8114612f9257600080fd5b50565b600081359050612fa481612f7e565b92915050565b60008060408385031215612fc157612fc0612d32565b5b6000612fcf85828601612f5f565b9250506020612fe085828601612f95565b9150509250929050565b612ff381612f74565b82525050565b61300281612f36565b82525050565b6000819050919050565b61301b81613008565b82525050565b61302a81612e82565b82525050565b60006080820190506130456000830187612fea565b6130526020830186612ff9565b61305f6040830185613012565b61306c6060830184613021565b95945050505050565b60008060006060848603121561308e5761308d612d32565b5b600084013567ffffffffffffffff8111156130ac576130ab612d37565b5b6130b886828701612e54565b93505060206130c986828701612f5f565b92505060406130da86828701612ea5565b9150509250925092565b60006020820190506130f96000830184612ff9565b92915050565b60006020828403121561311557613114612d32565b5b600082013567ffffffffffffffff81111561313357613132612d37565b5b61313f84828501612e54565b91505092915050565b60006020828403121561315e5761315d612d32565b5b600061316c84828501612f5f565b91505092915050565b61317e81613008565b811461318957600080fd5b50565b60008135905061319b81613175565b92915050565b600080604083850312156131b8576131b7612d32565b5b60006131c685828601612f5f565b92505060206131d78582860161318c565b9150509250929050565b60006020820190506131f66000830184612fea565b92915050565b60006020820190506132116000830184613012565b92915050565b600081519050919050565b600082825260208201905092915050565b6000819050602082019050919050565b61324c81612f74565b82525050565b600061325e8383613243565b60208301905092915050565b6000602082019050919050565b600061328282613217565b61328c8185613222565b935061329783613233565b8060005b838110156132c85781516132af8882613252565b97506132ba8361326a565b92505060018101905061329b565b5085935050505092915050565b600060208201905081810360008301526132ef8184613277565b905092915050565b6000806040838503121561330e5761330d612d32565b5b600083013567ffffffffffffffff81111561332c5761332b612d37565b5b61333885828601612e54565b925050602083013567ffffffffffffffff81111561335957613358612d37565b5b61336585828601612e54565b9150509250929050565b60006020828403121561338557613384612d32565b5b60006133938482850161318c565b91505092915050565b600067ffffffffffffffff8211156133b7576133b6612d57565b5b602082029050602081019050919050565b600080fd5b60006133e06133db8461339c565b612db7565b90508083825260208201905060208402830185811115613403576134026133c8565b5b835b8181101561344a57803567ffffffffffffffff81111561342857613427612d3c565b5b8086016134358982612e54565b85526020850194505050602081019050613405565b5050509392505050565b600082601f83011261346957613468612d3c565b5b81356134798482602086016133cd565b91505092915050565b600067ffffffffffffffff82111561349d5761349c612d57565b5b602082029050602081019050919050565b60006134c16134bc84613482565b612db7565b905080838252602082019050602084028301858111156134e4576134e36133c8565b5b835b8181101561350d57806134f98882612f5f565b8452602084019350506020810190506134e6565b5050509392505050565b600082601f83011261352c5761352b612d3c565b5b813561353c8482602086016134ae565b91505092915050565b600067ffffffffffffffff8211156135605761355f612d57565b5b602082029050602081019050919050565b600061358461357f84613545565b612db7565b905080838252602082019050602084028301858111156135a7576135a66133c8565b5b835b818110156135d057806135bc888261318c565b8452602084019350506020810190506135a9565b5050509392505050565b600082601f8301126135ef576135ee612d3c565b5b81356135ff848260208601613571565b91505092915050565b6000806000806080858703121561362257613621612d32565b5b600085013567ffffffffffffffff8111156136405761363f612d37565b5b61364c87828801613454565b945050602085013567ffffffffffffffff81111561366d5761366c612d37565b5b61367987828801613517565b935050604085013567ffffffffffffffff81111561369a57613699612d37565b5b6136a6878288016135da565b92505060606136b787828801612ea5565b91505092959194509250565b600081519050919050565b600082825260208201905092915050565b6000819050602082019050919050565b6136f881612f36565b82525050565b600061370a83836136ef565b60208301905092915050565b6000602082019050919050565b600061372e826136c3565b61373881856136ce565b9350613743836136df565b8060005b8381101561377457815161375b88826136fe565b975061376683613716565b925050600181019050613747565b5085935050505092915050565b6000602082019050818103600083015261379b8184613723565b905092915050565b600080604083850312156137ba576137b9612d32565b5b600083013567ffffffffffffffff8111156137d8576137d7612d37565b5b6137e485828601612e54565b92505060206137f585828601612f5f565b9150509250929050565b60006020820190506138146000830184613021565b92915050565b600060408201905061382f6000830185613012565b61383c6020830184613021565b9392505050565b60006020828403121561385957613858612d32565b5b600061386784828501612f95565b91505092915050565b600081519050919050565b600082825260208201905092915050565b60005b838110156138aa57808201518184015260208101905061388f565b60008484015250505050565b60006138c182613870565b6138cb818561387b565b93506138db81856020860161388c565b6138e481612d46565b840191505092915050565b6000608082019050818103600083015261390981876138b6565b9050818103602083015261391d81866138b6565b905061392c6040830185612ff9565b6139396060830184613021565b95945050505050565b600081905092915050565b600061395882613870565b6139628185613942565b935061397281856020860161388c565b80840191505092915050565b600061398a828461394d565b915081905092915050565b7f50686f6e6520616c7265616479207265676973746572656420746f20616e6f7460008201527f6865722077616c6c657400000000000000000000000000000000000000000000602082015250565b60006139f1602a8361387b565b91506139fc82613995565b604082019050919050565b60006020820190508181036000830152613a20816139e4565b9050919050565b7f4e6f7420617574686f72697a656420746f20636c61696d20666f72207468697360008201527f2070686f6e650000000000000000000000000000000000000000000000000000602082015250565b6000613a8360268361387b565b9150613a8e82613a27565b604082019050919050565b60006020820190508181036000830152613ab281613a76565b9050919050565b7f4e6f2066756e647320746f20636c61696d000000000000000000000000000000600082015250565b6000613aef60118361387b565b9150613afa82613ab9565b602082019050919050565b60006020820190508181036000830152613b1e81613ae2565b9050919050565b7f46756e647320616c726561647920636c61696d65640000000000000000000000600082015250565b6000613b5b60158361387b565b9150613b6682613b25565b602082019050919050565b60006020820190508181036000830152613b8a81613b4e565b9050919050565b6000604082019050613ba66000830185612ff9565b613bb36020830184613012565b9392505050565b600081519050613bc981612e8e565b92915050565b600060208284031215613be557613be4612d32565b5b6000613bf384828501613bba565b91505092915050565b7f546f6b656e207472616e73666572206661696c65640000000000000000000000600082015250565b6000613c3260158361387b565b9150613c3d82613bfc565b602082019050919050565b60006020820190508181036000830152613c6181613c25565b9050919050565b600081905092915050565b50565b6000613c83600083613c68565b9150613c8e82613c73565b600082019050919050565b6000613ca482613c76565b9150819050919050565b7f41564158207472616e73666572206661696c6564000000000000000000000000600082015250565b6000613ce460148361387b565b9150613cef82613cae565b602082019050919050565b60006020820190508181036000830152613d1381613cd7565b9050919050565b7f4e6f7420612072656769737465726564204e474f000000000000000000000000600082015250565b6000613d5060148361387b565b9150613d5b82613d1a565b602082019050919050565b60006020820190508181036000830152613d7f81613d43565b9050919050565b7f416d6f756e74206d7573742062652067726561746572207468616e2030000000600082015250565b6000613dbc601d8361387b565b9150613dc782613d86565b602082019050919050565b60006020820190508181036000830152613deb81613daf565b9050919050565b7f4e487b7100000000000000000000000000000000000000000000000000000000600052601160045260246000fd5b6000613e2c82613008565b9150613e3783613008565b9250828201905080821115613e4f57613e4e613df2565b5b92915050565b7f4e474f20616c7265616479207265676973746572656400000000000000000000600082015250565b6000613e8b60168361387b565b9150613e9682613e55565b602082019050919050565b60006020820190508181036000830152613eba81613e7e565b9050919050565b7f4e487b7100000000000000000000000000000000000000000000000000000000600052602260045260246000fd5b60006002820490506001821680613f0857607f821691505b602082108103613f1b57613f1a613ec1565b5b50919050565b60008190508160005260206000209050919050565b60006020601f8301049050919050565b600082821b905092915050565b600060088302613f837fffffffffffffffffffffffffffffffffffffffffffffffffffffffffffffffff82613f46565b613f8d8683613f46565b95508019841693508086168417925050509392505050565b6000819050919050565b6000613fca613fc5613fc084613008565b613fa5565b613008565b9050919050565b6000819050919050565b613fe483613faf565b613ff8613ff082613fd1565b848454613f53565b825550505050565b600090565b61400d614000565b614018818484613fdb565b505050565b5b8181101561403c57614031600082614005565b60018101905061401e565b5050565b601f8211156140815761405281613f21565b61405b84613f36565b8101602085101561406a578190505b61407e61407685613f36565b83018261401d565b50505b505050565b600082821c905092915050565b60006140a460001984600802614086565b1980831691505092915050565b60006140bd8383614093565b9150826002028217905092915050565b6140d682613870565b67ffffffffffffffff8111156140ef576140ee612d57565b5b6140f98254613ef0565b614104828285614040565b600060209050601f8311600181146141375760008415614125578287015190505b61412f85826140b1565b865550614197565b601f19841661414586613f21565b60005b8281101561416d57848901518255600182019150602085019450602081019050614148565b8683101561418a5784890151614186601f891682614093565b8355505b6001600288020188555050505b505050505050565b600060208201905081810360008301526141b981846138b6565b905092915050565b60006060820190506141d66000830186612ff9565b6141e36020830185612ff9565b6141f06040830184613012565b949350505050565b7f4172726179206c656e67746873206d757374206d617463680000000000000000600082015250565b600061422e60188361387b565b9150614239826141f8565b602082019050919050565b6000602082019050818103600083015261425d81614221565b9050919050565b7f4e487b7100000000000000000000000000000000000000000000000000000000600052603260045260246000fd5b600061429e82613008565b91507fffffffffffffffffffffffffffffffffffffffffffffffffffffffffffffffff82036142d0576142cf613df2565b5b600182019050919050565b7f496e73756666696369656e7420746f6b656e2062616c616e6365000000000000600082015250565b6000614311601a8361387b565b915061431c826142db565b602082019050919050565b6000602082019050818103600083015261434081614304565b9050919050565b7f496e73756666696369656e7420415641582062616c616e636500000000000000600082015250565b600061437d60198361387b565b915061438882614347565b602082019050919050565b600060208201905081810360008301526143ac81614370565b9050919050565b60006143be82613008565b91506143c983613008565b92508282039050818111156143e1576143e0613df2565b5b92915050565b7f50686f6e65206e6f74207265676973746572656420746f20796f75722077616c60008201527f6c65740000000000000000000000000000000000000000000000000000000000602082015250565b600061444360238361387b565b915061444e826143e7565b604082019050919050565b6000602082019050818103600083015261447281614436565b9050919050565b7f4e6f2066756e64732061737369676e656420746f20746869732070686f6e6500600082015250565b60006144af601f8361387b565b91506144ba82614479565b602082019050919050565b600060208201905081810360008301526144de816144a2565b9050919050565b7f46756e647320616c72656164792061737369676e656420746f20796f7572207760008201527f616c6c6574000000000000000000000000000000000000000000000000000000602082015250565b600061454160258361387b565b915061454c826144e5565b604082019050919050565b6000602082019050818103600083015261457081614534565b9050919050565b600060408201905061458c6000830185612ff9565b6145996020830184612ff9565b9392505050565b7f496e76616c69642077616c6c6574206164647265737300000000000000000000600082015250565b60006145d660168361387b565b91506145e1826145a0565b602082019050919050565b60006020820190508181036000830152614605816145c9565b9050919050565b7f526563697069656e74206e6f7420666f756e6400000000000000000000000000600082015250565b600061464260138361387b565b915061464d8261460c565b602082019050919050565b6000602082019050818103600083015261467181614635565b905091905056fea2646970667358221220396dcd446eaeec4bf66223c3a4f701fc3f4f47dd4becac686e5fde31018e0f3364736f6c63430008140033",
  "linkReferences": {},
  "deployedLinkReferences": {}
}